:1000000016C025C081C023C022C021C020C01FC08F
:100010001EC01DC062C01BC01AC019C018C039C0A4
:100020003CC03FC042C046C04AC04DC051C0112470
:100030001FBECFE5D2E0DEBFCDBF20E0A0E6B0E03E
:1000400001C01D92A236B207E1F768D0A8C0D8CF90
:100050009C01109261001092600012BE93B79360F1
:1000600093BF809160009091610082179307C8F35D
:1000700013BE0895E82F17BA88B3827E88BB8E2FEF
:1000800090E08830910540F5FC01E15FFF4F87B3B8
:100090000994896087BBC09A19C0896087BBC39ADD
:1000A00007C0816187BBC09A08C0816187BBC49AC1
:1000B000C0980895846187BBC29AC49808958461EA
:1000C00087BBC49A08C08C6087BBC29AC398089546
:1000D0008C6087BBC39AC29808951F920F920FB687
:1000E0000F9211248F939F938091600090916100F3
:1000F000019690936100809360009F918F910F9083
:100100000FBE0F901F9018951F920F920FB60F926F
:1001100011240F900FBE0F901F9018951092610040
:100120001092600017BAB998C19A8BB780628BBFE2
:10013000A99A8AB582608ABD83E689BD89B7806144
:1001400089BF789417BAF89485B7877E806185BF98
:1001500085B7806285BF85B7846885BF8B7F85BF83
:100160007894889585B78F7D85BFD4E0C0E08C2FCB
:1001700081DF8EE190E06CDFCF5FC830C1F7C6E071
:100180008C2F78DF8EE190E063DFC150C8F78FEFEE
:1001900071DF88EC90E05CDFD15041F7D3CFF89469
:0201A000FFCF8F
:00000001FF
